:020000040000FA
:10000000803102288731E22F2030E6009830E70067
:100010006F08EB006E08EA006D08E9006C08E80064
:10002000513090313A2080315130F5000130F600E6
:100030009F310E27080077088039F80078082000E3
:10004000A4007735F8007808AB00F61B2B142B08BA
:10005000031938282B0A031D35280030F70000301B
:10006000F6000030F5000030F400F617F7014028E4
:100070000030F7000030F6000030F5000030F400EA
:1000800073088039F8007808A4067335F8007808FA
:10009000AC00F21B2C142C0803195C282C0A031D3D
:1000A00059280030F3000030F2000030F100003039
:1000B000F000F217F30164280030F3000030F20082
:1000C0000030F1000030F000730872047104700415
:1000D000031D83280030F7000030F6000030F500E3
:1000E0000030F4008030F6047F30F7042408F80074
:1000F0007808F7047708F3007608F2007508F10035
:100100007408F00008002B08031D8F280030F3004E
:100110000030F2000030F1000030F00008002B0841
:10012000F800F9017908FB002C087802FA00031C9A
:10013000FB037A087F3EA50000307B3DA6007708D0
:10014000A3007608A2007508A1007408A000003082
:10015000F7000030F6000030F5000030F400003009
:10016000AA000030A9000030A8000030A700AC01B0
:100170001A302C020318F4282C080319D628013051
:10018000A035A10DA20DA30D890BC0280130F435B7
:10019000F50DF60DF70D890BC728AA1B7414013055
:1001A000A735A80DA90DAA0D890BD0287308230225
:1001B000031DE42872082202031DE42871082102AD
:1001C000031DE42870082002031CEF282A1770087A
:1001D000A0027108A13B7208A23B7308A33B013047
:1001E000F8007808AC07B82823082204210420046A
:1001F000031D2714F61B11290130F435F50DF60DFA
:10020000F70D890BFD28AA1B74140130A735A80D22
:10021000A90DAA0D890B0629FF30A507FF30A63DC1
:10022000FA28AC01AA1F2A29FF302705F800FF3061
:100230002805F900FF302905FA007F302A05FB0068
:100240007B087A04790478040319741828292A2968
:10025000AC01AC0A2C08031953290130F407003013
:10026000F53D0030F63D0030F73D771C532974080A
:10027000F8007508F9007608FA007708FB000130ED
:10028000FC00FB37FA0CF90CF80CFC0B41297B083D
:10029000F7007A08F6007908F5007808F4000130D4
:1002A000A5070030A63D2608803AF8008030780285
:1002B000031D5C29FF302502031C6B29FF30200041
:1002C000A5000030A6000030F7000030F600003036
:1002D000F5000030F40020002608803AF800803055
:1002E0007802031D75290130250203188329200097
:1002F000A501A6010030F7000030F6000030F5003F
:100300000030F400A40120002508F8007808AB00B4
:100310002B1C8C29F61790297F30F8007808F605F9
:100320002B36F8007808F7007628BC00BA01BB012C
:10033000200059082100D000200058082100CF00DB
:10034000200057082100CE00200056082100CD00D3
:1003500050082000BD0021004F082000BC002100F3
:100360004E082000BB0021004D082000BA000030DC
:10037000C1000030C0000030BF000030BE0094312A
:10038000192481310318DC2901302100BA00003022
:10039000BB005008F3004F08F2004E08F1004D0872
:1003A000F0009E313D2681317308D0007208CF00E5
:1003B0007108CE007008CD002100D301D4012200C5
:1003C0003B082100C10022003A082100C0003A0881
:1003D0003B04031DEE2922003E1D082A21003A0895
:1003E0003B04031DF5292B30F6292D30A4000030E5
:1003F000A50024082000DB005B082300A0000130DA
:100400002100D3070030D43DFF30C007FF30C13D8D
:1004100021005008F3004F08F2004E08F1004D088B
:10042000F0009331A123813170037104031D5D2A13
:100430005A08BF3EDB00FF3003180030DC000030FC
:100440005C021A3003195B020318282A0130292A9A
:100450000030DD00DE015D082100A60020005E08FE
:100460002100A7002608270403193A2A2530F000A6
:1004700098303D2A2D30F0009830F1005308A03E0E
:100480009F319B278131FD30C007FF30C13DA03037
:100490002000DB005B08A400210041082000A6002A
:1004A000210040082000A50021003C0892314C2288
:1004B0002508D7002408D600080021005008F300C2
:1004C0004F08F2004E08F1004D08F0009331A123CF
:1004D000813170087104031DB22A5A08BF3EDB0047
:1004E000FF3003180030DC0000305C021A300319C2
:1004F0005B0203187D2A01307E2A0030DD00DE0118
:100500005D082100A80020005E082100A90028083D
:10051000290403198F2A2930F0009830922A3130AB
:10052000F0009830F1005308A03E9F319B278131A5
:10053000FD30C007FF30C13DA0302000DB005B086C
:10054000A400210041082000A6002100400820004E
:10055000A50021003C0892314C222508D700240830
:10056000D60008003F302100D8008030D70000308E
:10057000D6000030D500D101D2015008F3004F0859
:10058000F2004E08F1004D08F0000030F700003096
:10059000F6000030F5000030F40091311B2181316C
:1005A000031C012B7F2B4130A3002030A200003020
:1005B000A1000030A000210058082000A700210061
:1005C00057082000A600210056082000A5002100A1
:1005D00055082000A4008B319F238131230821007E
:1005E000D800200022082100D70020002108210087
:1005F000D600200020082100D5000130D1070030AE
:10060000D23D50082000BD0021004F082000BC0052
:1006100021004E082000BB0021004D082000BA0038
:100620004130A3002030A2000030A1000030A00023
:10063000210058082000A700210057082000A6002C
:10064000210056082000A500210055082000A40024
:100650008B319F2381312308C1002208C00021086B
:10066000BF002008BE00943119248131031C5A2B8D
:10067000D32A4130F3002030F2000030F100003086
:10068000F00021005808F7005708F6005608F5005A
:100690005508F40080311B20813173082100D800F7
:1006A0007208D7007108D6007008D500FF30D10756
:1006B000FF30D23D210050082000BD0021004F082E
:1006C0002000BC0021004E082000BB0021004D0886
:1006D0002000BA00210058082000C100210057085E
:1006E0002000C000210056082000BF00210055084E
:1006F0002000BE00943119248131031C392B2000C5
:100700005A08DB00DC015B08F6005C08F7009F314B
:10071000BA2781317608DD005D082100C200420859
:100720002000DB005B082100BF0067304206031D8C
:10073000B52B22003C083D04031DA22B0130BC0058
:100740000030BD003D08803A2000DB0080305B02B5
:10075000031DAD2B013022003C020318B82B0630DC
:100760002100BD000030BE00C02B2200BD1BAF2BFE
:1007700022003D082100BE0022003C082100BD00EF
:1007800067304206031DF32B5208803A2000DB003D
:100790007F305B02031DCF2BFC3021005102031C74
:1007A000ED2B21003D08FF3E2000DB00FF30210043
:1007B0003E3D2000DC005C08803ADD00210052084C
:1007C000803A20005D02031DE92B21005108200022
:1007D0005B02031CED2B6630EE2B65302000DB0046
:1007E0005B082100BF003E08B5003D08B40067303B
:1007F0004206031D002C66303F060319D21F042C4D
:100800000130B4070030B53D66303F06031D1C2C97
:10081000D21F142C3F30D8008030D7000030D600D3
:100820000030D500D101D2016730420603191C2CDB
:100830005108B4075208B53DCB01CC015008C600A1
:100840004F08C5004E08C4004D08C3005808A30057
:100850005708A2005608A1005508A0004C08803A8D
:100860002000DB0021003508803A20005B02031DD8
:100870003C2C210034084B020318EA2C21005808B4
:10088000F3005708F2005608F1005508F00046083A
:10089000F7004508F6004408F5004308F4008031ED
:1008A0001B2081317308B0007208AF007108AE00E0
:1008B0007008AD00963148268131200030082100B3
:1008C000CA0020002F082100C90020002E082100A6
:1008D000C80020002D082100C7004A08F30049087D
:1008E000F2004808F1004708F00093313C238131C1
:1008F00071082100B9007008B8004A082000A7005C
:10090000210049082000A600210048082000A50079
:10091000210047082000A400210058082000A3005F
:10092000210057082000A200210056082000A10045
:10093000210055082000A0008B319F23813123081E
:10094000D1002208D0002108CF002008CE002100CD
:1009500046082000D500210045082000D4002100D1
:1009600044082000D300210043082000D2009F311A
:100970005F27813151082100C60020005008210066
:10098000C50020004F082100C40020004E082100AF
:10099000C3004130F3002030F2000030F10000309D
:1009A000F0005808F7005708F6005608F5005508FB
:1009B000F40080311B20813173082100D8007208B7
:1009C000D7007108D6007008D5000130CB07003081
:1009D000CC3D2E2C40302000A300A030A2000030DF
:1009E000A1000030A000210058082000A70021002D
:1009F00057082000A600210056082000A50021006D
:100A000055082000A4008B319F2381312308210049
:100A1000CA00200022082100C9002000210821006E
:100A2000C800200020082100C70046082000BD00A3
:100A3000210045082000BC00210044082000BB0024
:100A4000210043082000BA0021004A082000C1000C
:100A5000210049082000C000210048082000BF00F4
:100A6000210047082000BE00943119248131031869
:100A70003C2D00302100542D21004608F30045088C
:100A8000F2004408F1004308F0004A08F700490862
:100A9000F6004808F5004708F40091311B21813128
:100AA000031838185B2D0030CA000030C900003030
:100AB000C8000030C7004A082000BD0021004908D6
:100AC0002000BC00210048082000BB00210047088E
:100AD0002000BA00210050082000C10021004F086A
:100AE0002000C00021004E082000BF0021004D085A
:100AF0002000BE008931BE2181313D082100C600A1
:100B000020003C082100C50020003B082100C40053
:100B100020003A082100C3002308D8002208D7008B
:100B20002108D6002008D50065303F0603199D2D09
:100B30005208B7005108B6009F2DB601B701B201A7
:100B4000B301B001B101CB01CC01BA2E210058088C
:100B5000F3005708F2005608F1005508F000460867
:100B6000F7004508F6004408F5004308F40080311A
:100B70001B2081317308B0007208AF007108AE000D
:100B80007008AD00963148268131200030082100E0
:100B9000CA0020002F082100C90020002E082100D3
:100BA000C80020002D082100C7004A08F3004908AA
:100BB000F2004808F1004708F00093313C238131EE
:100BC00071082100B9007008B80022003E1AF72D04
:100BD000210038083904031DF72D67304206031938
:100BE000B71FF72D0130B0070030B13D4A2E21006C
:100BF000320833040319B71F162E2E302000DB00F5
:100C000021005308A03E86000130870020005B08C9
:100C1000810001302100D3070030D43DFF30C007F0
:100C2000FF30C13D0130B2000030B3003008310464
:100C30000319342E30302000DB0021005308A03E81
:100C400086000130870020005B0881000130210010
:100C5000D3070030D43DFF30C007FF30C13DFF3027
:100C6000B007FF30B13D162E3808303E2000DB00C3
:100C700021005308A03E86000130870020005B0859
:100C8000810001302100D3070030D43DFF30C00780
:100C9000FF30C13D4A082000A7002100490820007C
:100CA000A600210048082000A500210047082000D8
:100CB000A400210058082000A300210057082000AC
:100CC000A200210056082000A100210055082000A4
:100CD000A0008B319F2381312308D1002208D0004E
:100CE0002108CF002008CE00210046082000D500B2
:100CF000210045082000D400210044082000D30032
:100D0000210043082000D2009F315F278131510824
:100D10002100C600200050082100C50020004F0817
:100D20002100C40020004E082100C3004130F30020
:100D30002030F2000030F1000030F0005808F700D9
:100D40005708F6005608F5005508F40080311B20BE
:100D5000813173082100D8007208D7007108D600CD
:100D60007008D500FF30B607FF30B73D0130CB0724
:100D70000030CC3D4C08803A2000DB0021003508D3
:100D8000803A20005B02031DC82E210034084B026C
:100D90000318D82E21005408803A2000DB00803050
:100DA0005B02031DD62E4B3021005302031CA62DDF
:100DB000210032083304031DF12E22003E1EF12EC5
:100DC0002E302000DB0021005308A03E86000130B9
:100DD000870020005B08810001302100D30700302C
:100DE000D43D21005308A03E8600013087008101D8
:100DF00065303F06031DCC2F4F30CB000030CC00B8
:100E00004B08A03E8600013087008101BA01BB017A
:100E1000D21F132F0130BA000030BB00D109D20914
:100E2000D10A0319D20A0230BD000030BE005108B9
:100E3000520403195B2FFF302100CB07FF30CC3D5C
:100E40000A302000A0000030A1002100520820003C
:100E5000A300210051082000A2009031D62081314A
:100E60002008303EDB0021004B08A03E8600013008
:100E7000870020005B0881000A30A0000030A1003C
:100E8000210052082000A300210051082000A200E8
:100E90009231EB22813121082100D200200020086C
:100EA0002100D100FF30BD07FF30BE3DFF30C0073D
:100EB000FF30C13D172F3E08803A2000DB00803014
:100EC0005B02031D662F013021003D0203181B2F1A
:100ED000FF302100CB07FF30CC3D3A083B04031D17
:100EE000732F2B30742F2D30AA000030AB002A084E
:100EF0002000DB0021004B08A03E86000130870067
:100F000020005B088100FF302100C007FF30C13D99
:100F1000FF30CB07FF30CC3D20005A08BF3EDB003E
:100F2000FF3003180030DC0000305C021A30031977
:100F30005B0203189D2F01309E2F0030DD00DE0183
:100F40005D082100AE0020005E082100AF002E08E1
:100F50002F04031DAD2F6530AE2F4530AC0000309F
:100F6000AD002C082000DB0021004B08A03E8600CD
:100F70000130870020005B088100FF302100C0079E
:100F8000FF30C13D4B08A03EF0000130F100530896
:100F9000A03E9F319B278131A0302000DB005B0801
:100FA000A400210041082000A600210040082000E4
:100FB000A50021003C0892314C222508D7002408C6
:100FC000D6000800463084009E30850056308600EA
:100FD0000130870009309E31182687312030840087
:100FE0000130850028309E3112268731A0308400E0
:100FF0000130850050309E31122620008831C128F2
:10100000220090018F018C018D018E010F30210093
:101010009000FF308C00FF308D00FF308E00FF30DD
:101020008F00FF3023008F003F308D00073090008D
:101030003F308C00240090018D0121009517220083
:101040009D0108004008303E2000A800280822002A
:10105000D6000A302000A0000030A10022002F0896
:10106000F3002E08F2002D08F1002C08F000933157
:101070003C23883171082000A3007008A20092313F
:10108000EB2288312008303EA80028082200D70033
:101090000A302000A0000030A10022002F08F30039
:1010A0002E08F2002D08F1002C08F00093313C23AB
:1010B000883171082000A3007008A2009031D6206A
:1010C00088312008303EA80028082200D8000A30C5
:1010D0002000A0000030A10022002B08F3002A0805
:1010E000F2002908F1002808F00093313C238831F0
:1010F00071082000A3007008A2009231EB22883111
:101100002008303EA80028082200D9000A3020001C
:10111000A0000030A10022002B08F3002A08F200F2
:101120002908F1002808F00093313C238831710828
:101130002000A3007008A2009031D6202008303E85
:10114000A80028082200DA003408303E2000A80059
:1011500028082200DB003008303E2000A8002808C4
:101160002200DC003608303E2000A80028082200BB
:10117000DD003208303E2000A80028082200DE00F2
:1011800008009E315A2688319031032088319031F1
:10119000932088319E312D2688319E313526883125
:1011A0009E314F26883197311A27883120000E084A
:1011B00001392200D400D5015408C0005508C100EF
:1011C000A3290830D4005408F3000130943194244A
:1011D00088314130F5009830F6009F310E27883174
:1011E000B0290830D4005408F3000130943194241D
:1011F00088313530F5009830F6009F310E27883160
:1012000000309E316626883100309E31B12688310B
:1012100071082200C5007008C40001309E316626A6
:10122000883101309E31B126883171082200C70013
:101230007008C600C3302000BD008830BC0080307C
:10124000BB000030BA003E30A300FA30A2005E308E
:10125000A1003530A00022004408F0004508F1004C
:10126000F201F30100309531142588317308200014
:10127000A7007208A6007108A5007008A4008B31B1
:101280009F2388312308C1002208C0002108BF0025
:101290002008BE008931BE2188313D082200AF0000
:1012A00020003C082200AE0020003B082200AD00D8
:1012B00020003A082200AC00C3302000BD00983066
:1012C000BC00A130BB00AA30BA003F30A3000630FA
:1012D000A200A730A100F030A00022004608F000D4
:1012E0004708F100F201F3010030953114258831EF
:1012F00073082000A7007208A6007108A5007008F6
:10130000A4008B319F2388312308C1002208C0002C
:101310002108BF002008BE008931BE2188313D0868
:101320002200AB0020003C082200AA0020003B085D
:101330002200A90020003A082200A800C83000328C
:10134000890B9F29B0294108003A0319A829B0291F
:101350004008003A0319E128013A0319F128B0299D
:1013600092319B2288319131FD21883188312220B0
:10137000883156309E3186268831D3283D08803901
:10138000C2004208CA003D35C2004208CC00BC1B66
:101390004C144C080319DA294C0A031DD7290030D4
:1013A000BD000030BC000030BB000030BA00BC17EC
:1013B000BD01E2290030BD000030BC000030BB00A0
:1013C0000030BA0041088039C2004208CB004B0807
:1013D0004A06031D4A174135C2004208CB00C01B14
:1013E0004B144B080319022A4B0A031DFF29003036
:1013F000C1000030C0000030BF000030BE00C01788
:10140000C1010A2A0030C1000030C0000030BF0016
:101410000030BE004C084B020318502A4A1F142A01
:101420008030C2004208CA064C08C2004208CD0003
:101430004B08C2004208CC004D08C2004208CB0055
:101440003A08C2004208CD003E08C2004208BA0075
:101450004D08C2004208BE003B08C2004208CD0051
:101460003F08C2004208BB004D08C2004208BF004E
:101470003C08C2004208CD004008C2004208BC003F
:101480004D08C2004208C0003D08C2004208CD001D
:101490004108C2004208BD004D08C2004208C10018
:1014A000CD014B08C200C3014308C5004C084202ED
:1014B000C400031CC5034508803AC60080304602BC
:1014C000031D642A1A304402031C982A20003D0898
:1014D0003C043B043A0403196F2A0130702A00309F
:1014E000C2004208CD000030BD000030BC0000301A
:1014F000BB000030BA004B08C2004208CC009D2A55
:101500004D1C882A4D360138C2004208CD008A2A77
:101510000310CD0C3A18CD170130C200BD37BC0CFA
:10152000BB0CBA0CC20B8E2A0130C2004208CC0799
:1015300020004B084C02031C802A4A1BCE2A4C0870
:10154000031DAB2A0030BD000030BC000030BB00E2
:101550000030BA0008003E08BA073F08BB3D40080B
:10156000BC3D4108BD3D3D1C482B4D1CBD2A4D36A0
:101570000138C2004208CD00BF2A0310CD0C3A1832
:10158000CD170130C200BD37BC0CBB0CBA0CC20B6E
:10159000C32A0130C2004208CC07482B3D08803ADC
:1015A000C2004108803A4202031DE02A40083C0282
:1015B000031DE02A3F083B02031DE02A3E083A02D1
:1015C0000318182BFF30C200FF30C300FF30C400E7
:1015D000FF30C5003A083E02C6003B083F3BC7004B
:1015E0003C08403BC8003D08413BC9004608C207D3
:1015F0004708C33D4808C43D4908C53D4508BD00EE
:101600004408BC004308BB004208BA008030C20056
:101610004208CA06CD09CD0A4D08031D202B013012
:10162000BA070030BB3D0030BC3D0030BD3D202B33
:101630003E08BA023F08BB3B4008BC3B4108BD3BEB
:101640003D083C043B043A04031D462B4D08031D92
:10165000462B0030BD000030BC000030BB00003025
:10166000BA0008000130BA35BB0DBC0DBD0D890BA9
:10167000332BCD1B3A144D1C3F2B0314402B03106E
:10168000CD0D4C080319462B0130CC02BC1F322B68
:10169000CB01CD1F532B4D087F3903193A18512B1D
:1016A000532BCB01CB0A4B0803197F2B0130BA0710
:1016B0000030BB3D0030BC3D0030BD3D3D1C7F2BAC
:1016C0003A08C2003B08C3003C08C4003D08C500FE
:1016D0000130C600C537C40CC30CC20CC60B6A2B44
:1016E0004508BD004408BC004308BB004208BA00DE
:1016F0004C0A03197F2B0130C2004208CC074C0A68
:10170000031D4C08031D8F2B0030BD000030BC00B2
:101710000030BB000030BA004C080319CA014C1C51
:10172000932BBC17972B7F30C2004208BC054C3668
:10173000C2004208BD00CA1F0800BD1708002308E8
:101740008039A8002808AD002335A8002808B30078
:10175000A21B331433080319BA2B330A031DB82B09
:101760000030A3000030A2000030A1000030A00033
:10177000A217C22B0030A3000030A2000030A1004D
:101780000030A00027088039A8002808AD062735BA
:10179000A8002808AE00A61B2E142E080319DD2B66
:1017A0002E0A031DDB2B0030A7000030A6000030FE
:1017B000A5000030A400A617E52B0030A7000030DC
:1017C000A6000030A5000030A4002E08031D330839
:1017D000031DF32B0030A3000030A2000030A10055
:1017E0000030A00008002008A8002808F000260803
:1017F0009F317C278B317108B9007008B800380818
:10180000A800A901AA01AB012B08B2002A08B10067
:101810002908B0002808AF003908A800A901AA01CA
:10182000AB012B08B7002A08B6002908B500280824
:10183000B4002108A8002808F00025089F317C2763
:101840008B317108B9007008B8003808A800A901E8
:10185000AA01AB012808AF072908B03D2A08B13D0D
:101860002B08B23D3908A800A901AA01AB0128083C
:10187000B4072908B53D2A08B63D2B08B73D220814
:10188000A8002808F00024089F317C278B317108BC
:10189000B9007008B8003808A800A901AA01AB0176
:1018A0002808AF072908B03D2A08B13D2B08B23DF2
:1018B0003908A800A901AA01AB012808B407290822
:1018C000B53D2A08B63D2B08B73D0830AF35B00D01
:1018D000B10DB20D890B662C2108A8002808F00074
:1018E00024089F317C278B317108B9007008B8003B
:1018F0003808AF073908B03D0030B13DB23D20088F
:10190000A8002808F00025089F317C278B3171083A
:10191000B9007008B8003808AF073908B03D00308A
:10192000B13DB23D0830AF35B00DB10DB20D890BF0
:10193000932C2008A8002808F00024089F317C2759
:101940008B317108B9007008B8003808AF07390842
:10195000B03D0030B13DB23D2108A8002808F0009C
:1019600026089F317C278B317108B9007008B800B8
:101970003808B4073908B53D0030B63DB73D2208F8
:10198000A8002808F00025089F317C278B317108BA
:10199000B9007008B8003808B4073908B53D003000
:1019A000B63DB73D2208A8002808F00026089F3160
:1019B0007C278B317108B9007008B8003808A8007E
:1019C0003908A900AA01AB010830A835A90DAA0D54
:1019D000AB0D890BE52C2808B4072908B53D2A086A
:1019E000B63D2B08B73D3208A800A901AA01AB01FA
:1019F0002808B4072908B53D2A08B63D2B08B73D8D
:101A00000830AF35B00DB10DB20D890B012D330883
:101A10002E07A800A901A90D2808823EB800FF30B2
:101A2000293DB900B61B292D0130B435B50DB60DD1
:101A3000B70D890B152DB21B34140130AF35B00D25
:101A4000B10DB20D890B1E2DFF30B807FF30B93D27
:101A5000122DAE01B21F422DFF302F05A800FF301E
:101A60003005A900FF303105AA007F303205AB00F8
:101A70002B082A042904280403193418402D422D68
:101A8000AE01AE0A2E0803196B2D0130B4070030E9
:101A9000B53D0030B63D0030B73D371C6B2D3408E6
:101AA000A8003508A9003608AA003708AB000130A5
:101AB000AC00AB37AA0CA90CA80CAC0B592D2B0809
:101AC000B7002A08B6002908B5002808B40001307C
:101AD000B8070030B93D3908803AA80080302802A4
:101AE000031D742DFF303802031C802D7F30200031
:101AF000B7008030B6000030B5000030B400AA2D29
:101B000020003908803AA80080302802031D8A2D61
:101B1000013038020318972D00302000B700003044
:101B2000B6000030B5000030B400AD01AA2D200091
:101B30003808A8002808B300FF30B405FF30B50509
:101B40007F30B6050030B7053318B6173336A80016
:101B50002808B7002D08A8002808B7043708A300F4
:101B60003608A2003508A1003408A00008002100B2
:101B7000E50020005F0886008701403FE100413F0B
:101B8000E20061088400620885001200253A031D06
:101B9000DB2F5F0886008701013081074131031880
:101BA000810A2200BA01BB01BE01BF01FF30BC00A7
:101BB000FF30BD0020005F0886008701403FE10044
:101BC000413FE200610884006208850012002E3A5D
:101BD000031D5F2E2200BC01BD0120005F088600AE
:101BE00087010130810741310318810A5F088600AF
:101BF0008701403FE100413FE20061088400620844
:101C0000850012002A3A031D1C2E5F0886008701FA
:101C10000130810741310318810A600886000130D4
:101C2000870001088400850102308107003F2200FF
:101C3000BC00013FBD005F2E5F0886008701403F6A
:101C4000F600413FF7009531A9258D317708220034
:101C5000BD007608BC00352E20005F088600870195
:101C60000130810741310318810A20005F08860096
:101C70008701403FE100413FE200610884006208C3
:101C800085000008D03EE300FF3003180030E40078
:101C9000003064020A30031963020318512E013028
:101CA000522E0030E500E60165082100D900200031
:101CB00066082100DA0059085A04031D2C2E200062
:101CC0005F0886008701403FE100413FE200610874
:101CD0008400620885000008E300E4016308F60060
:101CE0006408F7009F31BA278D317608E500650852
:101CF0002100E10061080319BC2E20005F08860066
:101D00008701403FE100413FE2000130610784006C
:101D100062080318620A85000008E300E401630812
:101D2000F6006408F7009F31BA278D317608E50088
:101D300065082100E20062080319BC2E20005F083C
:101D400086008701403FE100413FE2000230610729
:101D5000840062080318620A85000008E300E401B9
:101D60006308F6006408F7009F31BA278D317608C2
:101D7000E50065082100E30066306106031D0A2FB7
:101D800020005F0886008701403FE100413FE200FC
:101D900061088400620885000008E30063082100F0
:101DA000E40020005F08860087010130810741318F
:101DB0000318810A6008860001308700010884004A
:101DC000850104308107003F2100DD00013FDE0076
:101DD000023FDF00033FE00060082000D90021003F
:101DE0005F082000D80021005E082000D7002100F5
:101DF0005D082000D600210064082000E100610891
:101E0000DA0021006508813195215708E000560865
:101E1000DF0008004530F0009830F1000230F20099
:101E20000030F300E1309131AF218D317008710441
:101E3000031DA62F20005F0886008701403FE100B8
:101E4000413FE20001306107840062080318620A22
:101E500085000008E30063082100E40020005F081B
:101E600086008701403FE100413FE20061088400B5
:101E7000620885000008BF3EE300FF300318003011
:101E8000E400003064021A300319630203184A2F79
:101E900001304B2F0030E500E60165082100DB0032
:101EA000200066082100DC005B085C0403196B2F2E
:101EB0002000600886000130870001088400850149
:101EC00004308107003F2100DD00013FDE00023FBA
:101ED000DF00033F7D2F200060088600013087006F
:101EE00001088400850104308107003F2100DD00E6
:101EF000013FDE00023FDF00033FE00020005F08FB
:101F0000860087010230810741310318810A2100D0
:101F100060082000D90021005F082000D8002100BF
:101F20005E082000D70021005D082000D6002100B7
:101F300064082000E1006108DA00210065088131B1
:101F400095215708E0005608DF00080020005F08D0
:101F500086008701403FE100413FE20061088400C4
:101F6000620885001200253A031DD02F5F08860005
:101F700087010130810741310318810A2530F000C3
:101F80000030F100210065082000E1006108F20046
:101F90009131632101302000DF000030E0000800B3
:101FA0005F08860087010130810741310318810AEB
:101FB000DF01E00108005F0886008701403FE10083
:101FC000413FE20061088400620885000008E300E8
:101FD000E4016308F0006408F100210065082000B6
:101FE000E5006508F200913163218D3120005F0822
:101FF000860087010130810741310318810ACA2F09
:1020040008008F0101308E00FF308C0023008F0107
:102014003F308C0020008E018F010800F40074080A
:102024000F39F1007108F2007408F039F1007108F9
:10203400F30020000F157308F1000430F136890B0A
:10204400202871089E319B2690318F150D30890B05
:102054002928000020008F1172089E319B269031A0
:102064008F150D30890B3428000020008F110800D3
:102074002200CA00E8302000EF006F082200CB00E5
:102084004A082000EF006F082200CC00CD01CE01E9
:10209400CF01D001210067082000E8002100660874
:1020A4002000E7004B30EF006F08E9004C3090311E
:1020B400662022004D084A072000EF006F088600C2
:1020C4000130870081010800EC006808EE00670811
:1020D400ED002200B801B90120006D0884006E08EB
:1020E4008500120003198A286D30EA006A08DF00AF
:1020F4006908EB006B08E0006C088D31B72590315E
:102104005F082200B807200060082200B93D6E284D
:10211400220039082000E800220038082000E700E7
:10212400080000309E319B2690311A30F300F830BD
:10213400890B9A28F30B9A28003203309E317326B8
:1021440090310730F3007D30890BA628F30BA628C5
:10215400000003309E31732690310F30F300483075
:10216400890BB228F30BB22803309E3173269031C9
:1021740002309E317326903102309E3173269031A5
:1021840008309E317326903100309E317326903191
:102194000C309E317326903100309E31732690317D
:1021A40006309E3173260800FD01A31FE028A20912
:1021B400A309A20A0319A30AFD01FD0AA11FE72826
:1021C400A009A109A00A0319A10A200821040319DE
:1021D4000E29FC01FC0AA11BF9280130A035A10D30
:1021E400890BF0280130FB007B08FC07ED2821084F
:1021F4002302031DFF2820082202031C05292008AE
:10220400A2022108A33B0130A136A00C890B0629A8
:102214000130FC02031DF9287D0803191629A209BF
:10222400A309A20A0319A30A2308A1002208A000F3
:10223400080000307005F80000307105F9008030A6
:102244007205FA007F307305FB007B087A04790479
:102254007804031D35290030F3000030F20000300B
:10226400F1000030F00000307405F800003075050E
:10227400F90080307605FA007F307705FB007B0893
:102284007A0479047804031D4F290030F7000030E4
:10229400F6000030F5000030F40077087306031DE3
:1022A4005D2976087206031D5D2975087106031DF4
:1022B4005D297408700603196129031008000314CA
:1022C40008007208031D7208031D6C297008903100
:1022D400022008007208033E8600013087001600C1
:1022E4000104031992297208033E86000130870015
:1022F400403FF300413FF400720A8600013087003A
:10230400403FF500413FF6007608803AF700740834
:10231400803A7702031D9029730875020318080098
:102324007008F3007208860001308700720A840086
:102334000130850000080107F400740886000130AC
:10234400870073088100720A86000130870001301B
:10235400810741310318810A0800F5007508F4006B
:102364007408F8007108F7007008F6000130F202F2
:102374000030F33B720A031DE929730A031DE9299E
:10238400F001F10108007608840077088500120046
:102394000319EF29720873040319EF2976088400DE
:1023A400770885000008F400780886008701010892
:1023B4007406031DEF290130F4007408F807013096
:1023C400F6070030F73D0130F2020030F33B7808A5
:1023D400860087010108031DC52978088600870146
:1023E400760884007708850000080102F000F101F6
:1023F400031CF10308002B082000BD0022002A085A
:102404002000BC00220029082000BB00220028086C
:102414002000BA004130C100F030C0000030BF00DD
:102424000030BE009431192491310318212A01305F
:102434002200B0000030B100B201B3010800423004
:10244400BD007030BC000030BB000030BA00220078
:102454002B082000C10022002A082000C00022000E
:1024640029082000BF00220028082000BE00943163
:10247400192491310318462A2200B001B101013018
:10248400B2000030B30008002200B001B101B20173
:10249400B30108002000AB0022003E1C5A2A200091
:1024A4002B08FC007C08F80024089F31DB279231BC
:1024B4002000A61B622A2608AA002508A900642A6F
:1024C400A901AA01A701A8012808803AFC002A084A
:1024D400803A7C02031D702A290827020318842AE3
:1024E4002030F0000030F10020002B08FC007C08B4
:1024F400F20091316321923101302000A7070030AE
:10250400A83D662A22003E18902A20002B08FC00D1
:102514007C08F80024089F31DB279231200024082E
:102524009E31F62629087007A4002A08713DA500EB
:10253400080022002F082000BD0022002E082000E1
:10254400BC0022002D082000BB0022002C08200023
:10255400BA004130C100A030C0000030BF000030DC
:10256400BE009431192492310318C02A013022008C
:10257400B4000030B500B601B70108004230BD0018
:102584004830BC000030BB000030BA0022002F08E5
:102594002000C10022002E082000C00022002D08C7
:1025A4002000BF0022002C082000BE009431192412
:1025B40092310318E52A2200B401B5010130B600B6
:1025C4000030B70008002200B401B501B601B7011C
:1025D4000800A501A11FF52AA009A109A00A031951
:1025E400A10AA501A50AA31F002BA209A309A20AF7
:1025F4000319A30A0130FB007B08A506A601A70165
:102604002008210403192F2BA401A40AA11B142BB5
:102614000130A035A10D890B0B2B0130FB007B0889
:10262400A407082B0130A635A70D890B152B21080B
:102634002302031D1F2B20082202031C262B200823
:10264400A2022108A33B26140130A136A00C890B59
:10265400272B0130A402031D142B25080319372B43
:10266400A609A709A60A0319A70A2708A10026088C
:10267400A00008000310720D730DF4007408FA0032
:102684007A08031D4E2B0030F3000030F2000030B6
:10269400F1000030F00008007008F4007108F50043
:1026A4007208F6007308F7001F30F736F60CF50CC5
:1026B400F40C890B572B7408F8007808F900F2170A
:1026C400FF30F005FF30F105FF30F2050030F3056F
:1026D4009630FA02FA1F812B7A08803A973E031C3F
:1026E400452B0130F336F20CF10CF00C890B742BF2
:1026F4000130F4007408FA070319922B732B20306D
:102704007A020318452B7A080319922B0130F0350D
:10271400F10DF20DF30D890B892B0130FA02852B93
:10272400790803190800F009F109F209F309F00A1C
:102734000319F10A0319F20A0319F30A0800220023
:1027440027082000A500220026082000A40022005B
:1027540025082000A300220024082000A2007308FA
:10276400A5007208A4007108A3007008A200220842
:10277400F4002308F5002408F6002508F7001730B4
:10278400F736F60CF50CF40C890BC22BFF307405EC
:10279400A00000307505A10020082104031DF12BC1
:1027A4002208F4002308F5002408F6002508F700A1
:1027B4000130F435F50DF60DF70D890BDB2B770899
:1027C400760475047404031DEC2B0230F000003011
:1027D400F10008000330F0000030F1000800200A86
:1027E4002104031D142C2208F4002308F5002408F6
:1027F400F6002508F7000930F435F50DF60DF70D50
:10280400890BFE2B7708760475047404031D0C2CC5
:1028140001300D2C0030F800F9017808F000790837
:10282400F10008000430F0000030F100080000302E
:102834003A05C20000303B05C30080303C05C400AB
:102844007F303D05C5004508440443044204031D8C
:10285400332C0030BD000030BC000030BB00003021
:10286400BA0000303E05C20000303F05C30080308E
:102874004005C4007F304105C500450844044304B5
:102884004204031D4D2C0030C1000030C000003054
:10289400BF000030BE00BD1F672C0030C2000030F6
:1028A400C3000030C4008030C5003A08C2023B08AF
:1028B400C33B3C08C43B3D08C53B4508BD00440838
:1028C400BC004308BB004208BA00C11F812C003081
:1028D400C2000030C3000030C4008030C5003E0890
:1028E400C2023F08C33B4008C43B4108C53B4508FE
:1028F400C1004408C0004308BF004208BE00803045
:10290400BD068030C10641083D02031D0800400891
:102914003C02031D08003F083B02031D08003E085B
:102924003A020800F6007603031DB42C73087F3EB8
:10293400F4007408F9007908F4000430F436890BC3
:10294400A02C7408F5007508F70079080F39F40015
:102954007408F80077089E317326943178089E3104
:102964007326080002307606031DD42C7308BF3E7C
:10297400F4007408F9007908F4000430F436890B83
:10298400C02C7408F5007508F70079080F39F400B5
:102994007408F80077089E317326943178089E31C4
:1029A4007326080003307606031DF42C73088F3E4B
:1029B400F4007408F9007908F4000430F436890B43
:1029C400E02C7408F5007508F70079080F39F40055
:1029D4007408F80077089E317326943178089E3184
:1029E4007326080004307606031D08007308CF3EE2
:1029F400F4007408F9007908F4000430F436890B03
:102A0400002D7408F5007508F70079080F39F400F3
:102A14007408F80077089E317326943178089E3143
:102A240073260800F8007808031DF31F292D700988
:102A3400FA007109FB007209FC007309FD00FA0A2F
:102A44000319FB0A0319FC0A0319FD0A312D730843
:102A5400FD007208FC007108FB007008FA0073089E
:102A6400720471047004031D402D0030F300003023
:102A7400F2000030F1000030F00008009630F4005D
:102A84007408F900FE307D050319672D0130F40048
:102A94007408F9070130FD36FC0CFB0CFA0C890BA9
:102AA4004D2D442D0130F4007408F9070130FA0764
:102AB4000030FB3D0030FC3D0030FD3D0130FD3673
:102AC400FC0CFB0CFA0C890B612DFF307D050319FE
:102AD400792D542D02307902031C7B2D0130F9022B
:102AE4000130FA35FB0DFC0DFD0D890B732DFC1F18
:102AF4006C2D7918852DFF30FA05FF30FB057F30EA
:102B0400FC05FF30FD050310F90C7908F400F5010C
:102B1400F601F7011830F435F50DF60DF70D890BB4
:102B24008D2D7408FA047508FB047608FC047708F4
:102B3400FD047808031DF31FA02DFD177D08F30085
:102B44007C08F2007B08F1007A08F0000800A70175
:102B5400A801A001A101A601A60A760884007708AD
:102B640085001200203A0319C92D760884007708DD
:102B740085000008F73EF800FF3003180030F90024
:102B8400003079020530031978020318A6012608DB
:102B9400F800F9017808A2007908A30022082304A8
:102BA4000319DE2D0130F6070030F73DAD2D01305D
:102BB400A0000030A100102E76088400770885005C
:102BC4000008F800F9017908003A0319EA2D142ED7
:102BD40078082B3A0319102E063A0319D92D142E0E
:102BE40076088400770885000008F8002808F100BA
:102BF4002708F0000A30F2000030F3009F31282744
:102C040095317108FA0078087002F900031CFA0380
:102C14007908303EA70000307A3DA8000130F6075D
:102C24000030F73D76088400770885000008D03E20
:102C3400F800FF3003180030F900003079020A3040
:102C4400031978020318282E0130292E0030FA00C7
:102C5400FB017A08A4007B08A50024082504031DB1
:102C6400F22D20082104031D432E2709F80028090A
:102C7400F900F80A0319F90A7808F6007908F70048
:102C840008002808F7002708F60008002200230897
:102C94002000C000220022082000BF0022002108DA
:102CA4002000BE00220020082000BD003008C00023
:102CB4002F08BF002E08BE002D08BD003D08B1003E
:102CC4003E08B2003F08B3004008B4001730B436E1
:102CD400B30CB20CB10C890B692EFF303105B50071
:102CE40000303205B6003508813EBB00FF30363D6A
:102CF400BC003C08803AB10080303102031D842EB0
:102D040017303B02031808002000BC1BDE2EFF30E6
:102D1400B100FF30B2007F30B3000030B4003B0A92
:102D2400972EB437B30CB20CB10C890B932E340824
:102D3400BA003308B9003208B8003108B7003D08BA
:102D44003705B1003E083805B2003F083905B30025
:102D540040083A05B400340833043204310403193A
:102D640008003D08B1003E08B2003F08B300400827
:102D7400B4001F30B436B30CB20CB10C890BBC2EAA
:102D840031080319CD2E3708BD073808BE3D390870
:102D9400BF3D3A08C03D3709B1003809B2003909CE
:102DA400B3003A09B4003108BD053208BE05330842
:102DB400BF053408C005112F3D08B1003E08B2001C
:102DC4003F08B3004008B4001F30B436B30CB20C53
:102DD400B10C890BE72E3108031DF42E0030C0001E
:102DE40000300C2F3D08B1003E08B2003F08B3008C
:102DF4004008B4000130B135B20DB30DB40D890BE8
:102E0400FD2E34083304320431040319112FBF306A
:102E1400C0008030BF000030BE000030BD0040085C
:102E2400B0003F08AF003E08AE003D08AD0008000A
:102E3400F301F30A01309431942497310030F50002
:102E44009830F6009F310E279731F301F30A0230D0
:102E54009431942497313930F5009830F6009F313D
:102E64000E27973122002F082100EF0022002E08A0
:102E74002100EE0022002D082100ED0022002C0884
:102E84002100EC0080310420973108302200D30067
:102E94005308F30002309431942497313D30F50007
:102EA4009830F6009F310E27973122002B0821001D
:102EB400EF0022002A082100EE0022002908210048
:102EC400ED00220028082100EC0080310420973115
:102ED400F301F30A03309431942497310830F50058
:102EE4009830F6009F310E27973122003408F00005
:102EF4003508F100F201F3010030953114259731C2
:102F040073082100EF007208EE007108ED007008EC
:102F1400EC0080310420973109302200D30053089B
:102F2400F30003309431942497310E30F500983037
:102F3400F6009F310E27973122003608F00037083B
:102F4400F100F201F3010030953114259731730833
:102F54002100EF007208EE007108ED007008EC002B
:102F6400803104209731F301F30A0430943194241E
:102F740097311430F5009830F6009F310E279731C1
:102F840022003008F0003108F100F201F3010030B2
:102F940095311425973173082100EF007208EE0073
:102FA4007108ED007008EC0080310420973109307D
:102FB4002200D3005308F300043094319424973151
:102FC4001A30F5009830F6009F310E279731220011
:102FD4003208F0003308F100F201F30100309531BA
:102FE4001425973173082100EF007208EE00710870
:102FF400ED007008EC00803104200800533477346D
:1030040069347434633468343A34003449344E34A3
:10301400463431343A340034533455345034313432
:103024003A34003449344E34463432343A34003479
:1030340053345534503432343A34003425342E3435
:1030440030346634003449344E34463400344E341B
:1030540041344E34003469346E34663400346E3492
:1030640061346E3400344F344E34203400344C34E4
:103074004D343A340034503454343A3400344F34F8
:0C3084004634463400346C3466340034AA
:103C1C001630210097000800640080010131890BE7
:103C2C00132E0034FE0012001E00FE0B192E003461
:103C3C006830210099009801220096010800F000DC
:103C4C002000111E262E700823009A000800003058
:103C5C009E3173269E3101309E317326080001304F
:103C6C0021009D0080309E009B019C010800730880
:103C7C00720471047004031908008030F306080004
:103C8C003034303430343034303430343034303408
:103C9C0030340E1323001E121E131E159F150830F0
:103CAC009B009D179E160800883100209E319E3186
:103CBC001E269E319E310E269E319E3135260800E1
:103CCC00F1007108F000F00DF00D21001D087006D8
:103CDC00833970069D001D140800F20020000F119E
:103CEC0072089E319B269E318F150630F1003030C4
:103CFC00890B7E2EF10B7E2E003220008F110800D6
:103D0C00F2007208860001308700010803190800D0
:103D1C00720886000130870001089E3125269E31ED
:103D2C000130F1007108F207872EF000701CA02EF4
:103D3C000F16A12E0F12F01CA52E8F16A62E8F1269
:103D4C00701DAA2E0F17AB2E0F13F01DAF2E8F1751
:103D5C0008008F130800F3007308F200F20DF20D47
:103D6C001D087206833972069D001D140032003244
:103D7C00000021009D149D18C12E1C08F1001B0889
:103D8C00F00008007008D03EF200FF30713DF300E7
:103D9C00003073020A30031972020318D72E013057
:103DAC00D82E0030F400F5017408F0007508F1000D
:103DBC0008007008BF3EF200FF30713DF300003088
:103DCC0073021A30031972020318EE2E0130EF2E13
:103DDC000030F400F5017408F0007508F1000800DB
:103DEC00F4007408F2007208F300740886000130C5
:103DFC00870001080319072F0130F2007208F4073D
:103E0C00FB2E73087402F000F101F01BF1030800A3
:103E1C00F801F9017508780784007608793D85006A
:103E2C001200031908007508780784007608793D9C
:103E3C0085000008903110209F310130F8070030C8
:103E4C00F93D102FF401F501701C302F7208F407A6
:103E5C007308F53D0130F235F30D890B312F01302C
:103E6C00F136F00C890B362F70087104031D2A2FC4
:103E7C007508F1007408F0000800F401F40A203011
:103E8C00700671040319572F7008F73EF200FF30CB
:103E9C00713DF300003073020530031972020318F0
:103EAC00F4017408F200F3017208F0007308F100D9
:103EBC0008008030D1065508BD005408BC005308DA
:103ECC00BB005208BA005108C1005008C0004F088E
:103EDC00BF004E08BE008931BE213D08D1003C0810
:103EEC00D0003B08CF003A08CE000800F800F401DF
:103EFC00F5017008F200F3017208F6007308F70080
:103F0C00781C8C2F7608F4077708F53D0130F635D0
:103F1C00F70D890B8D2F0310F80C7808031D862FD5
:103F2C007508F1007408F0000800F7007108F5003E
:103F3C007008F4007708F2007208F6007608860024
:103F4C0001308700F60A7508F3007408F200F40AD1
:103F5C000319F50A72088400730885000008C03F35
:103F6C00890803190800A42F7608BF3EF800FF301B
:103F7C00773DF900003079021A30031978020318E2
:103F8C00C92F0130CA2F0030FA00FB017A08FC005F
:103F9C007B08FD007C087D040319080020307604A2
:103FAC00F60000307704F7000800A300A101A2017D
:103FBC0021082307F90079088600013087000108E1
:103FCC00FA007A08A0002008031908002008F9005C
:103FDC00FA017908F0007A08F1007808FB007B08F8
:103FEC00F200913163219F3101302000A107003094
:043FFC00A23DDE2FD5
:020000040001F9
:04000E00E4FFFFFE0E
:00000001FF
