:020000040000FA
:08000000803102288731EF2F47
:100CF40016302100970008006830210099009801FF
:100D0400220096010800F9002000111E8A2E8B2E65
:100D1400862E790823009A00080021008D010130F5
:100D24008E0023008D0120008E018D010800863184
:100D3400D726863186317E26863186317A268631DB
:100D4400080021000E138E1723001E121E131E15F9
:100D54009F1508309B009D179E161D160800230042
:100D64009D1CB52EB62EB82E1D121D162000911EE8
:100D7400BC2EBD2EB82E230019080800CD2E7A08EB
:100D840084007B0885000008863185268631013081
:100D9400FA070030FB3D7A0884007B0885001200C6
:100DA400031DD52ED62EC12E0800220090018F01DE
:100DB4008C018D018E010F3021009000FF308C00DA
:100DC400FF308D00FF308E00FF308F00FF30230096
:100DD4008F003F308D00073090003F308C0024009E
:100DE40090018D012100951722009D010800863194
:100DF400B1268631F9007908F0008631B1268631B2
:100E0400F9007908F1008631B1268631F9007908B4
:100E1400F2008631B1268631F9007908F300863173
:100E2400B1268631F9007908F4008631B12686317D
:100E3400F9007908F5008631B1268631F900790880
:100E4400F6008631B1268631F9007908F70086313B
:100E5400B1268631F9007908F80008008631992610
:100E6400873186318F2687318631A32687318631B3
:100E7400F926873131307506031D412F422F462F45
:100E840020000D148D10532F31307706031D4B2F86
:100E94004C2F502F20000D108D14532F20000D10B7
:100EA4008D1031307606031D582F592F5C2F0D15E8
:100EB4008D11672F31307806031D612F622F652F46
:100EC4000D118D15672F0D118D117108FD007D0811
:100ED400A2007208FD007D08A3007308FD007D08D0
:100EE400A0007408FD007D08A1002130FA008830BC
:100EF400FB008631C026873170088631852687310C
:100F04000A308631852687310D3086318526873132
:100F14001D30FA008830FB008631C0268731710805
:100F240086318526873172088631852687311730C8
:100F3400FA008830FB008631C02687317308863179
:100F44008526873174088631852687310A308631B3
:100F5400852687310D308631852687310930FA00A0
:100F64008830FB008631C026873175088631852696
:100F740087310030FA008830FB008631C026873183
:100F840076088631852687310A3086318526873171
:100F94000D308631852687311030FA008830FB0009
:100FA4008631C0268731770886318526873100301F
:100FB400FA008830FB008631C026873178088631F4
:100FC400852687310A308631852687310D30863172
:100FD40085268731392F80310228F001F101F20191
:100FE400F301F401F501F601F701F8012000A00175
:100FF400A101A201A30120008731302F2034203425
:1010040053345534503432343A342034003449346F
:101014004E34463431343A34203400345334553465
:10102400503431343A3420340034203420345034B1
:1010340054343A3400344C344D343A340034533458
:0610440057343A34003479
:020000040001F9
:04000E00E4FFFFFE0E
:00000001FF
